:1000000014C0189518951895189518951895189561
:100010001895189518951895189518951895189578
:10002000189518951895189518958FE58DBFC0E40B
:10003000E6E24E2E82E08EBFD2E0F2E05F2EA8957F
:1000400084B7082E877F84BF88E1992781BD91BD41
:10005000EEEFF1E0A0E6B0E088278D933197E9F765
:1000600083E389B988E18AB987D066248A9A8B9A12
:100070008D9A81E88FBD81E08EBD86E886B980E4E7
:1000800087B9379A929A939A07B1007E006007B9B0
:10009000D5D1A6E6B0E08D939C93E6E6F0E0D19052
:1000A000E0808FEFE7FE8827F82E082F23D253D267
:1000B000E4EEF6E098D262D2EDE0F0E0A8E6B0E03F
:1000C0000BD3ECEEF6E039D0AEE0B2E0E8E6F0E0DB
:1000D000F2D1D5D02AD037D0E8EEF6E08DD2E8E6DE
:1000E000F0E0E9D14BD2EDE0F0E0B1D1A4E6B0E030
:1000F000EE0C000FE794DD92EC92AEE0B2E0E4E6A5
:10010000F0E099D212D01FD0A4E6B0E08D919C917E
:1001100090934B0080934A008FE711E02BD0E2E0F0
:10012000F7E018D0B1CFF894FFCFAEE0B2E08D91F8
:10013000882311F00BD0FBCF089551D2802D11F000
:1001400005D0FBCF08958DE001D08AE05D9BFECF06
:100150008CB9089544D2802D11F050D0FBCF089572
:100160008FE7213039F08FEB223021F08FE82330F8
:1001700009F08FEC810F48C08AEF90E071D0A79A08
:10018000A69AA59AA49AA09AA19AA99885E090E027
:1001900067D0A898AF98AE98AD9AAC9AA89AEF930A
:1001A000FF93E4ECF0E050D0FF91EF91A89855D088
:1001B000A89AEF93FF93E4ECF0E046D0FF91EF9123
:1001C000A8984BD0A89AEF93FF93E4ECF0E03CD0D2
:1001D000FF91EF91A89841D0AC98A89AEF93FF9324
:1001E000E4ECF0E031D0FF91EF91A89836D088E2AE
:1001F0000BD08EE009D086E007D00895A99A8295A9
:1002000005D004D02AD00895A998F9CF859510F487
:10021000AC9A01C0AC98859510F4AD9A01C0AD9828
:10022000859510F4AE9A01C0AE98859510F4AF9AFA
:1002300001C0AF98A89AEF93FF93E4ECF0E004D0EC
:10024000FF91EF91A89808953197F1F70895689478
:1002500062F80895E89462F8089581E090E000C0A3
:10026000EF93FF93EE27E82BE92B31F0E0EDF7E079
:100270003197F1F70197D1F7FF91EF9108958DE252
:1002800007FD8D938F2D881F802F881F8F57082F74
:100290006894F7F8802F87FF15C080958395082F05
:1002A00080E38D938EE28D93802F815228F080E33E
:1002B0008D9399279C93089544270A95802F09F1DF
:1002C00092D01FC0805230F09EE49D9381E48D93C4
:1002D0009D93EFCF4427DF92EF92FF920F938FE130
:1002E000801B11F0082F7FD085D09EE29D930F9147
:1002F000FF90EF90DF9044270395003209F4D7CFA9
:1003000027D03F93E6E8F3E038E12F2D1E2D0D2D89
:10031000FF24EE24DD244427000F111F221F88F440
:100320002F923F925CD1102C5AD1202C58D1302CD6
:1003300056D13197410DD21CE31CF01C3F902F90F9
:1003400001C0339631963A9539F73F9107D0B3CF34
:10035000DD0CEE1CFF1C0A95D9F70895002719E063
:1003600058D08F93802B11F0039501C08F911A956F
:10037000B9F7802F882309F49ACF8F91805D8D93F0
:100380000A95D9F796CF0065CD1D80B2E60E40598B
:100390007307A0ACB90350D6DC01286BEE0094358E
:1003A0007700CA9A3B0065CD1D00B2E60E00597376
:1003B0000700ACB90300D6DC01006BEE0000357716
:1003C00000009A3B0000CD1D0000E60E0000730700
:1003D0000000B9030000DC010000EE00000077001F
:1003E00000003B000000F694E794D79447950A95E7
:1003F000D1F7089500270DD08F9303958F2D8E2967
:100400008D29842BC1F78F91805D8D930A95D9F743
:1004100050CF1F930F93002710E2440FDD1CEE1CFA
:10042000FF1C001F802F9AE0890B10F0082F4395C6
:100430001A9599F7802F0F911F910895369A369942
:10044000FECF369A3699FECF84B195B1089533D058
:10045000992711278F2D880F80E8F82A802F881F71
:1004600008F41FEF41F08F57082F07FD04C000323A
:1004700040F08FEF01C08827982FD82EE82EF82E55
:1004800009C08FE1801B082FF694E794D7949795C5
:100490000A95D1F7112351F09095D094E094F094FF
:1004A00081E0980F8827D81EE81EF81E0F2DFE2C1D
:1004B000ED2CD92E0895D190E190F19001910895FD
:1004C000102F90E8FF0C001F0927990FF794107860
:1004D000652F90E8440F551F5927990F479560786D
:1004E00000380895FF0C90E89027110F9795F79426
:1004F000092F0895102FBD2CDE2CEF2CF02E112388
:100500004AF4B094D094E094F0949FEFB91AD90AC9
:10051000E90AF90A0EE1FF2039F4FE2CED2CDB2C60
:10052000BB240850C2F724C032F00A95BB0CDD1C76
:10053000EE1CFF1CF9CF01D0D5CFB7FE089590E88F
:10054000B91611F4D0FE08959FEFD91AE90AF90AF5
:1005500009F403950895502F2D2D3E2D4F2D612F19
:1005600008959FE7092FF92A9FEFD92EE92E0895C4
:10057000DD24EE24FF24002711270895A1DFC1F315
:100580005038B1F31627005850580894051F12F43C
:1005900018F4E7CF08F0ECCF0BD0FF202AF0BB0C0B
:1005A000DD1CEE1CFF1C9ECF0F5F0BF4DACF9ACF41
:1005B0009F929924AA24BB24992788E1990CAA1C0C
:1005C000BB1CDD1CEE1CFF1C30F4920EA31EB41EDF
:1005D000D91EE91EF91E8A9589F79F900895C8953E
:1005E000319600200895FBDFD02CF9DFE02CF7DFF7
:1005F000F02CF5DF002D0895F2DF202DF0DF302DF7
:10060000EEDF402DECDF502D0895000F111F221F4B
:10061000331F089500951095209530950F5F1F4F5B
:100620002F4F3F4F0895019110810EC001911191FC
:10063000219130810BC00191108117FF05C03FEF60
:100640002FEF04C0008111272227332737FF03C073
:10065000E1DF8DE28D93CF93DF93CF92DF92EF9224
:10066000AA24BB24CC24DD24EE2440E2CAE0DD270A
:1006700055E093E38881890F87FD9F7083FD907F0C
:10068000891B89935A95A9F7C0DFAA1CBB1CCC1CF7
:10069000DD1CEE1C4A9551F7E894EFE0FF278291AC
:1006A0000ED0EB30E0F71EF068948A2D0CD088272E
:1006B0008D93EF90DF90CF90DF91CF910895982F99
:1006C000829501D0892F8F70805D26F0803309F4E8
:1006D000089568948D93089594E081918D939A95EF
:1006E000E1F7089548E1FA3E3333234053756875C6
:1006F000207361617420696E69206164616C616856
:0E07000020006461746120414443203D2000CC
:00000001FF
