:1000000014C0189518951895189518951895189561
:100010001895189518951895189518951895189578
:10002000189518951895189518958FE58DBFC8E304
:10003000E0E24E2E82E08EBFD2E0F2E05F2EA89585
:1000400084B7082E877F84BF88E1992781BD91BD41
:10005000EEEFF1E0A0E6B0E088278D933197E9F765
:1000600083E389B988E18AB966248FEF84BB8D9ACE
:1000700081E88FBD81E08EBD71E075BBE2E9F1E002
:100080002FD0A0E6B0E033E014D0A0E6B0E052D02C
:10009000A4E6B0E00D931C93A4E6B0E08D919C9192
:1000A00090934B0080934A00E9CFF894FFCFA8E0EB
:1000B000B2E012D08D3039F03323D9F38D933A95D5
:1000C00063FE14D0F6CF63FC04C08DE00FD08AE04D
:1000D0000DD088278C9308955F9BFECF8CB1089537
:1000E00012D0802D11F002D0FBCF08955D9BFECF82
:1000F0008CB908953197F1F70895689462F80895DE
:10010000E89462F80895C895319600200895040F88
:10011000151F261F371F0895000F111F221F331FA1
:10012000089500951095209530950F5F1F4F2F4F24
:100130003F4F089500271127222733271DD08A33E8
:1001400028F4803318F005D015D0F9CF0EF4E9CF9C
:10015000089580538F93402F512F622F732FDCDF30
:10016000DBDFD5DFD9DF8F919927080F191F291FF2
:10017000391F08958D910895E894FCDF8032E9F3EA
:100180008B32D9F38930C9F38D3211F46894F2CFF0
:1001900008954D6173756B6B616E206E696C61695A
:1001A0002050574D20286D61782032353529203D6B
:0201B00020002D
:00000001FF
