:1000000012C0189518951895189518951895189563
:100010001895189518951895189518951895189578
:100020001895189518958FE58DBFC8E3E0E24E2E20
:1000300084E08EBFD4E0F4E05F2EA89584B7082E4C
:10004000877F84BF88E1992781BD91BDEEEFF3E002
:10005000A0E6B0E088278D933197E9F766248FEF0B
:1000600081BB81E08093600091E0A0E6B0E02BD0FE
:10007000A0E6B0E08C9182BB81E090E015D00091C9
:100080006000083009F003C081E080936000ECCF8D
:100090000895F894FFCF3197F1F70895689462F8C6
:1000A0000895E89462F80895EF93FF93EE27E82B04
:1000B000E92B31F0E0EDF7E03197F1F70197D1F757
:1000C000FF91EF910895903039F08C91880F08F4EA
:0A00D00081609A95D9F78C9308958A
:00000001FF
