:1000000012C0189518951895189518951895189563
:100010001895189518951895189518951895189578
:100020001895189518958FE58DBFC8E3E0E24E2E20
:1000300084E08EBFD4E0F4E05F2EA89584B7082E4C
:10004000877F84BF88E1992781BD91BDEEEFF3E002
:10005000A0E6B0E088278D933197E9F766248FEF0B
:1000600081BB81E08093600008D084E690E032D0CC
:1000700015D084E690E02ED0F7CF91E0A0E6B0E076
:1000800038D0A0E6B0E08C9182BB84E690E022D02C
:1000900000916000003809F0F0CF089591E0A0E6EB
:1000A000B0E031D0A0E6B0E08C9182BB84E690E075
:1000B00011D000916000013009F0F0CF0895F8945C
:1000C000FFCF3197F1F70895689462F80895E894A6
:1000D00062F80895EF93FF93EE27E82BE92B31F0B8
:1000E000E0EDF7E03197F1F70197D1F7FF91EF914C
:1000F0000895903039F08C91880F08F481609A95BA
:10010000D9F78C930895903039F08C91869508F446
:0A01100080689A95D9F78C93089542
:00000001FF
