:1000000012C0189518951895189518951895189563
:100010001895189518951895189518951895189578
:100020001895189518958FE58DBFC8E3E0E24E2E20
:1000300084E08EBFD4E0F4E05F2EA89584B7082E4C
:10004000877F84BF88E1992781BD91BDEEEFF3E002
:10005000A0E6B0E088278D933197E9F766248FEF0B
:1000600081BB81E08093600000916000003809F05E
:1000700001C00CC091E0A0E6B0E034D0A0E6B0E052
:100080008C9182BB84E690E01ED0EECF00916000A0
:10009000013009F001C0E8CF91E0A0E6B0E02CD03B
:1000A000A0E6B0E08C9182BB84E690E00CD0EECF6D
:1000B000F894FFCF3197F1F70895689462F80895A6
:1000C000E89462F80895EF93FF93EE27E82BE92B6D
:1000D00031F0E0EDF7E03197F1F70197D1F7FF91BB
:1000E000EF910895903039F08C91880F08F4816079
:1000F0009A95D9F78C930895903039F08C91869524
:0C01000008F480689A95D9F78C93089554
:00000001FF
