:1000000012C0189518951895189518951895189563
:100010001895189518951895189518951895189578
:100020001895189518958FE58DBFC8E3E0E24E2E20
:1000300084E08EBFD4E0F4E05F2EA89584B7082E4C
:10004000877F84BF88E1992781BD91BDEEEFF3E002
:10005000A0E6B0E088278D933197E9F766248FEF0B
:1000600081BB81E080936000A0E6B0E08C9182BB10
:1000700091E0A0E6B0E025D0EAE0F0E004D0F4CFD3
:100080000895F894FFCF88EE93E00CD03197D9F71C
:1000900008953197F1F70895689462F80895E89407
:1000A00062F80895EF93FF93EE27E82BE92B31F0E8
:1000B000E0EDF7E03197F1F70197D1F7FF91EF917C
:1000C0000895903039F08C91880F08F481609A95EA
:0600D000D9F78C9308959E
:00000001FF
