:1000000014C0189518951895189518951895189561
:100010001895189518951895189518951895189578
:10002000189518951895189518958FE58DBFC8E304
:10003000E0E24E2E82E08EBFD2E0F2E05F2EA89585
:1000400084B7082E877F84BF88E1992781BD91BD41
:10005000EEEFF1E0A0E6B0E088278D933197E9F765
:1000600087E489B988E18AB911D1662486E886B91E
:1000700080E487B98FEF84BB86E886B980E487B9CE
:10008000F1D08CE04BD1EEE8F4E0E4D0E9D0E6E941
:10009000F4E0E0D0379A07B1007E006007B983D161
:1000A000A0E6B0E08D939C93A0E6B0E00D911C918A
:1000B00045E050E06ED1A2E6B0E00D931C93A2E6BD
:1000C000B0E00D911C914AE050E0A2D0A4E6B0E06F
:1000D0004D935C938FEB16E0D4D0A8E0B2E0E4E659
:1000E000F0E07CD1AFD0ECE9F4E0B4D08AE090E06D
:1000F00041D1379A07B1007E006007B954D1082F6B
:10010000192F45E050E045D1A8E6B0E00D931C93CF
:10011000A8E6B0E00D911C914AE050E079D0A6E647
:10012000B0E04D935C93A6E6B0E00D911C9141E0E8
:1001300050E0041B150BAAE6B0E00D931C9384E17C
:1001400090E018D1A6E6B0E00D911C910C3150E082
:10015000150708F005C0A89AAB9884E190E00AD191
:10016000A6E6B0E00D911C910C3150E0150781E03E
:1001700008F480E08F93A6E6B0E00D911C91083260
:1001800050E0150781E010F009F080E09F9189238D
:10019000882309F405C0A898AB9884E190E0EAD0E0
:1001A000A6E6B0E00D911C91083250E0150710F062
:1001B00009F001C005C0A89AAB9A84E190E0DAD0BA
:1001C0006ACFF894FFCF08D0E4D000FC10D0089597
:1001D00003D01ED001F8F9CF0024E89457FF02C0E5
:1001E00009D0689400F80BD010F80124089502D0CB
:1001F00009D00895509540954F5F5F4F0895E8945A
:1002000017FF0895009510950F5F1F4F689408958C
:10021000352F242FE894452B11F468940895512F1D
:10022000402F0027112780E1440F551F001F111F89
:10023000021B130B416018F4020F131F4E7F8A95A7
:1002400099F70895A8E0B2E08D91882311F060D06D
:10025000FBCF0895B1D0802D11F05AD0FBCF089577
:1002600080EC5CC081E05AD00ED080E857C08FE7A8
:10027000213039F08FEB223021F08FE8233009F064
:100280008FEC810F4BC083E0992774C08AEF90E018
:1002900071D0BF9ABE9ABD9ABC9ABA9AB89AC098C1
:1002A00085E090E067D0C298C798C698C59AC49A6E
:1002B000C29AEF93FF93E1E1F1E050D0FF91EF910B
:1002C000C29855D0C29AEF93FF93E1E1F1E046D096
:1002D000FF91EF91C2984BD0C29AEF93FF93E1E167
:1002E000F1E03CD0FF91EF91C29841D0C498C29AFE
:1002F000EF93FF93E1E1F1E031D0FF91EF91C298EC
:1003000036D088E20BD08EE009D086E007D0089581
:10031000C09A829505D004D02AD00895C098F9CF0C
:10032000859510F4C49A01C0C498859510F4C59AB7
:1003300001C0C598859510F4C69A01C0C6988595E8
:1003400010F4C79A01C0C798C29AEF93FF93E1E1F6
:10035000F1E004D0FF91EF91C29808953197F1F741
:100360000895689462F80895E89462F8089581E029
:1003700090E000C0EF93FF93EE27E82BE92B31F0DC
:10038000EDECFAE03197F1F70197D1F7FF91EF919A
:1003900008950F92B801469F8001479F100D569F08
:1003A000100D0F900895369A3699FECF369A3699E9
:1003B000FECF84B195B10895C89531960020089577
:1003C000000F111F221F331F0895009510952095CF
:1003D00030950F5F1F4F2F4F3F4F089501911081B0
:1003E0000EC001911191219130810BC001911081BA
:1003F00017FF05C03FEF2FEF04C000811127222710
:10040000332737FF03C0E1DF8DE28D93CF93DF9376
:10041000CF92DF92EF92AA24BB24CC24DD24EE24D9
:1004200040E2CAE0DD2755E093E38881890F87FD2C
:100430009F7083FD907F891B89935A95A9F7C0DF30
:10044000AA1CBB1CCC1CDD1CEE1C4A9551F7E89481
:10045000EFE0FF2782910ED0EB30E0F71EF06894BA
:100460008A2D0CD088278D93EF90DF90CF90DF916D
:10047000CF910895982F829501D0892F8F70805D3C
:1004800026F0803309F4089568948D930895497295
:100490006177616E000054656D703D00204320005F
:00000001FF
