:1000000010C0189518951895189518951895189565
:100010001895189518951895189518951895189578
:1000200018958FE58DBFC8E3E0E24E2E82E08EBFCB
:10003000D2E0F2E05F2EEEEFF1E0A0E6B0E088273C
:100040008D933197E9F742D066248CE087D020D099
:100050008FE716E02DD0EAEDF1E014D01DD08FEB44
:1000600013E026D0EEEDF1E00DD0E1E0F0E025D098
:10007000E1E0F0E022D010D08FEB10E019D0E8EEF4
:10008000F1E000D0A6D0802D11F062D0FBCF089512
:1000900082E064D018D00EC080EC60C08FE72130C1
:1000A00039F08FEB223021F08FE8233009F08FEC0C
:1000B000810F54C080E852D0089588EE93E07AD042
:1000C0003197D9F7089583E0992774C08AEF90E0BB
:1000D00071D0A09AA19AA29AA39AA49AA59AAD982F
:1000E00085E090E067D0AC98A898A998AA9AAB9AB6
:1000F000AC9AEF93FF93E4ECF0E050D0FF91EF91D6
:10010000AC9855D0AC9AEF93FF93E4ECF0E046D076
:10011000FF91EF91AC984BD0AC9AEF93FF93E4EC46
:10012000F0E03CD0FF91EF91AC9841D0AB98AC9A05
:10013000EF93FF93E4ECF0E031D0FF91EF91AC98B6
:1001400036D088E20BD08EE009D086E007D0089543
:10015000AD9A829505D004D02AD00895AD98F9CFF4
:10016000859510F4AB9A01C0AB98859510F4AA9AC6
:1001700001C0AA98859510F4A99A01C0A9988595FF
:1001800010F4A89A01C0A898AC9AEF93FF93E4ECFE
:10019000F0E004D0FF91EF91AC9808953197F1F71A
:1001A0000895689462F80895E89462F8089581E0EB
:1001B00090E000C0EF93FF93EE27E82BE92B31F09E
:1001C000E0EDF7E03197F1F70197D1F7FF91EF916B
:1001D0000895C89531960020089553574E00494E12
:1001E0004B554241544F52004279203A20497261A6
:0401F00077616E00C5
:00000001FF
