:1000000010C0189518951895189518951895189565
:100010001895189518951895189518951895189578
:1000200018958FE58DBFC8E3E0E24E2E82E08EBFCB
:10003000D2E0F2E05F2EEEEFF1E0A0E6B0E088273C
:100040008D933197E9F783E389B988E18AB966240A
:100050008FEF84BB86E886B980E487B98D9A81E802
:100060008FBD81E08EBD379A71E075BBECEEF5E097
:1000700066D0A6E6B0E033E043D0A6E6B0E07FD29B
:10008000AAE6B0E00D931C93AAE6B0E08D919C9196
:1000900090934B0080934A0007B1087F006007B936
:1000A00058D1A0E6B0E08D939C93E0E6F0E0D190CB
:1000B000E0808FEFE7FE8827F82E082F72D1A2D1BB
:1000C000E8EEF5E0E7D1B1D1EDE0F0E0A2E6B0E096
:1000D00085D2A8E0B2E0E0E6F0E000D228D035D04A
:1000E000A8E0B2E0E2E6F0E03DD154D020D02DD03F
:1000F000E1E0F0E031D0BACFF894FFCFA8E0B2E071
:1001000012D08D3039F03323D9F38D933A9563FEB5
:100110001FD0F6CF63FC04C08DE01AD08AE018D05F
:1001200088278C9308955F9BFECF8CB10895A8E03B
:10013000B2E08D91882311F00BD0FBCF0895A6D1AA
:10014000802D11F005D0FBCF08958DE001D08AE01D
:100150005D9BFECF8CB9089588EE93E00CD031976B
:10016000D9F708953197F1F70895689462F80895E2
:10017000E89462F80895EF93FF93EE27E82BE92BBC
:1001800031F0E0EDF7E03197F1F70197D1F7FF910A
:10019000EF9108958DE207FD8D938F2D881F802F9D
:1001A000881F8F57082F6894F7F8802F87FF15C096
:1001B00080958395082F80E38D938EE28D93802F19
:1001C000815228F080E38D9399279C9308954427CA
:1001D0000A95802F09F192D01FC0805230F09EE422
:1001E0009D9381E48D939D93EFCF4427DF92EF920F
:1001F000FF920F938FE1801B11F0082F7FD085D0E5
:100200009EE29D930F91FF90EF90DF90442703951E
:10021000003209F4D7CF27D03F93ECE9F2E038E180
:100220002F2D1E2D0D2DFF24EE24DD244427000F3D
:10023000111F221F88F42F923F9228D1102C26D113
:10024000202C24D1302C22D13197410DD21CE31C1B
:10025000F01C3F902F9001C0339631963A9539F7B4
:100260003F9107D0B3CFDD0CEE1CFF1C0A95D9F7E8
:100270000895002719E058D08F93802B11F0039533
:1002800001C08F911A95B9F7802F882309F49ACF6E
:100290008F91805D8D930A95D9F796CF0065CD1D1E
:1002A00080B2E60E40597307A0ACB90350D6DC010A
:1002B000286BEE0094357700CA9A3B0065CD1D008F
:1002C000B2E60E0059730700ACB90300D6DC01009A
:1002D0006BEE0000357700009A3B0000CD1D00005A
:1002E000E60E000073070000B9030000DC01000007
:1002F000EE000000770000003B000000F694E79459
:10030000D79447950A95D1F7089500270DD08F937C
:1003100003958F2D8E298D29842BC1F78F91805DB8
:100320008D930A95D9F750CF1F930F93002710E2B2
:10033000440FDD1CEE1CFF1C001F802F9AE0890B70
:1003400010F0082F43951A9599F7802F0F911F9160
:100350000895369A3699FECF369A3699FECF84B1F3
:1003600095B10895D190E190F19001910895102FE9
:1003700090E8FF0C001F0927990FF7941078652F5C
:1003800090E8440F551F5927990F4795607800381A
:100390000895FF0C90E89027110F9795F794092F77
:1003A0000895102FBD2CDE2CEF2CF02E11234AF4D3
:1003B000B094D094E094F0949FEFB91AD90AE90A66
:1003C000F90A0EE1FF2039F4FE2CED2CDB2CBB24C6
:1003D0000850C2F724C032F00A95BB0CDD1CEE1C9D
:1003E000FF1CF9CF01D0D5CFB7FE089590E8B9161C
:1003F00011F4D0FE08959FEFD91AE90AF90A09F419
:1004000003950895502F2D2D3E2D4F2D612F0895CA
:100410009FE7092FF92A9FEFD92EE92E0895DD24B1
:10042000EE24FF24002711270895A1DFC1F35038DF
:10043000B1F31627005850580894051F12F418F409
:10044000E7CF08F0ECCF0BD0FF202AF0BB0CDD1C6F
:10045000EE1CFF1C9ECF0F5F0BF4DACF9ACF9F925A
:100460009924AA24BB24992788E1990CAA1CBB1CB7
:10047000DD1CEE1CFF1C30F4920EA31EB41ED91E10
:10048000E91EF91E8A9589F79F900895C8953196BF
:1004900000200895FBDFD02CF9DFE02CF7DFF02CF3
:1004A000F5DF002D0895040F151F261F371F08952F
:1004B000000F111F221F331F0895009510952095DE
:1004C00030950F5F1F4F2F4F3F4F089501911081BF
:1004D0000EC001911191219130810BC001911081C9
:1004E00017FF05C03FEF2FEF04C00081112722271F
:1004F000332737FF03C0E1DF8DE28D93CF93DF9386
:10050000CF92DF92EF92AA24BB24CC24DD24EE24E8
:1005100040E2CAE0DD2755E093E38881890F87FD3B
:100520009F7083FD907F891B89935A95A9F7C0DF3F
:10053000AA1CBB1CCC1CDD1CEE1C4A9551F7E89490
:10054000EFE0FF2782910ED0EB30E0F71EF06894C9
:100550008A2D0CD088278D93EF90DF90CF90DF917C
:10056000CF910895982F829501D0892F8F70805D4B
:1005700026F0803309F4089568948D930895002738
:100580001127222733271DD08A3328F4803318F00F
:1005900005D015D0F9CF0EF490CF089580538F93E6
:1005A000402F512F622F732F83DF82DF7CDF80DFAC
:1005B0008F919927080F191F291F391F08958D91B1
:1005C0000895E894FCDF8032E9F38B32D9F3893067
:1005D000C9F38D3211F46894F2CF089594E08191BB
:1005E0008D939A95E1F7089548E1FA3E4D61737550
:1005F0006B6B616E206E696C61692050574D2028CD
:0C0600004D61782032353529203D200066
:00000001FF
