:1000000010C0189518951895189518951895189565
:100010001895189518951895189518951895189578
:1000200018958FE58DBFC8E3E0E24E2E82E08EBFCB
:10003000D2E0F2E05F2EEEEFF1E0A0E6B0E088273C
:100040008D933197E9F783E389B988E18AB966240A
:1000500077E077BB7FEF78BB80E090E0A4E6B0E08C
:100060008D939C9380E090E0A6E6B0E08D939C9306
:100070007EEF78BBB39913C0A0E6B0E032D1EAE9D5
:10008000F4E067D1A6E6B0E00D911C9141E050E0AC
:10009000040F151FA6E6B0E00D931C9330C0B49971
:1000A00013C0A0E6B0E01DD1ECE9F4E052D1A6E621
:1000B000B0E00D911C9141E050E0040F151FA6E641
:1000C000B0E00D931C931BC0B59913C0A0E6B0E03F
:1000D00008D1EEE9F4E03DD1A6E6B0E00D911C9127
:1000E00041E050E0040F151FA6E6B0E00D931C930D
:1000F00006C0B69904C0A0E6B0E088278C9380E5DE
:1001000090E00ED17DEF78BBB39913C0A0E6B0E0CC
:10011000E8D0E0EAF4E01DD1A6E6B0E00D911C9134
:1001200041E050E0040F151FA6E6B0E00D931C93CC
:100130003EC0B49913C0A0E6B0E0D3D0E2EAF4E048
:1001400008D1A6E6B0E00D911C9141E050E0040F0B
:10015000151FA6E6B0E00D931C9329C0B59913C0F6
:10016000A0E6B0E0BED0E4EAF4E0F3D0A6E6B0E06A
:100170000D911C9141E050E0040F151FA6E6B0E080
:100180000D931C9314C0B69912C0A0E6B0E0A9D09C
:10019000E6EAF4E0DED0A6E6B0E00D911C9141E085
:1001A00050E0040F151FA6E6B0E00D931C9380E508
:1001B00090E0B6D07BEF78BBB39913C0A0E6B0E077
:1001C00090D0E8EAF4E0C5D0A6E6B0E00D911C912D
:1001D00041E050E0040F151FA6E6B0E00D931C931C
:1001E0003DC0B49913C0A0E6B0E07BD0EAEAF4E0E9
:1001F000B0D0A6E6B0E00D911C9141E050E0040FB4
:10020000151FA6E6B0E00D931C9328C0B59913C046
:10021000A0E6B0E066D0ECEAF4E09BD0A6E6B0E061
:100220000D911C9141E050E0040F151FA6E6B0E0CF
:100230000D931C9313C0B69911C080916600A0E67F
:10024000B0E07DD0A6E6B0E00D911C9141E050E019
:10025000041B150BA6E6B0E00D931C9380E590E01F
:100260005FD0A0E6B0E0EAD0A4E6B0E00D931C9326
:10027000A4E6B0E00D911C91073E53E0150714F081
:1002800009F001C013C0A0E6B0E0EEEAF4E061D0EE
:10029000A0E6B0E02FD034D080E090E0A4E6B0E05B
:1002A0008D939C93A0E6B0E088278C93A6E6B0E0FF
:1002B0000D911C91033050E0150714F009F001C0B6
:1002C00006C080E090E0A6E6B0E08D939C93A8E0A5
:1002D000B2E0E4E6F0E061D00BD012D0C9CEF894E1
:1002E000FFCF8F938D918823E9F711978F91089510
:1002F000A8E0B2E08D91882311F005D0FBCF0895DE
:100300008DE001D08AE05D9BFECF8CB908953197D6
:10031000F1F70895689462F80895E89462F80895F2
:10032000EF93FF93EE27E82BE92B31F0E0EDF7E0B8
:100330003197F1F70197D1F7FF91EF910895FD0102
:10034000002703959D91081709F091939923C9F708
:10035000089504D00D920020E1F70895C8953196D4
:1003600000200895040F151F261F371F0895000F42
:10037000111F221F331F0895009510952095309569
:100380000F5F1F4F2F4F3F4F0895019110810EC0F7
:1003900001911191219130810BC00191108117FFC2
:1003A00005C03FEF2FEF04C000811127222733271C
:1003B00037FF03C0E1DF8DE28D93CF93DF93CF92C0
:1003C000DF92EF92AA24BB24CC24DD24EE2440E269
:1003D000CAE0DD2755E093E38881890F87FD9F7090
:1003E00083FD907F891B89935A95A9F7C0DFAA1CCA
:1003F000BB1CCC1CDD1CEE1C4A9551F7E894EFE0C9
:10040000FF2782910ED0EB30E0F71EF068948A2D22
:100410000CD088278D93EF90DF90CF90DF91CF9114
:100420000895982F829501D0892F8F70805D26F0D6
:10043000803309F4089568948D9308950027112757
:10044000222733271DD08A3328F4803318F005D0B3
:1004500015D0F9CF0EF490CF089580538F93402F8D
:10046000512F622F732F83DF82DF7CDF80DF8F913C
:100470009927080F191F291F391F08958D91089575
:10048000E894FCDF8032E9F38B32D9F38930C9F389
:100490008D3211F46894F2CF0895310034003700A2
:1004A0003200350038003000330036003900455244
:0204B0005200F8
:00000001FF
