:1000000010C0189518951895189518951895189565
:100010001895189518951895189518951895189578
:1000200018958FE58DBFC8E3E0E24E2E82E08EBFCB
:10003000D2E0F2E05F2EEEEFF1E0A0E6B0E088273C
:100040008D933197E9F783E389B988E18AB966240A
:10005000B89AB99ABA9ABB98BC98BD98BE98C09AFB
:10006000C198C298B39B05C0E8E7F1E05CD061D0CD
:1000700017C0B49B05C0EAE7F1E055D05AD010C0D4
:10008000B59B05C0ECE7F1E04ED053D009C0B69B5C
:1000900007C0EEE7F1E047D04CD084E690E059D0BD
:1000A000C098C19AC298B39B05C0E0E8F1E03BD08C
:1000B00040D017C0B49B05C0E2E8F1E034D039D09D
:1000C00010C0B59B05C0E4E8F1E02DD032D009C0E6
:1000D000B69B07C0E6E8F1E026D02BD084E690E09E
:1000E00038D0C098C198C29AB39B05C0E8E8F1E047
:1000F0001AD01FD017C0B49B05C0EAE8F1E013D0B6
:1001000018D010C0B59B05C0ECE8F1E00CD011D0C0
:1001100009C0B69B07C0EEE8F1E005D00AD084E63E
:1001200090E017D09CCF24D0802D11F005D0FBCFCC
:1001300008958DE001D08AE05D9BFECF8CB90895D3
:100140003197F1F70895689462F80895E89462F899
:100150000895EF93FF93EE27E82BE92B31F0E0EDC4
:10016000F7E03197F1F70197D1F7FF91EF910895FB
:10017000C8953196002008953100340037002A00D8
:1001800032003500380030003300360039002300DB
:00000001FF
