:1000000010C0189518951895189518951895189565
:100010001895189518951895189518951895189578
:1000200018958FE58DBFC8E3E0E24E2E82E08EBFCB
:10003000D2E0F2E05F2EEEEFF1E0A0E6B0E088273C
:100040008D933197E9F783E389B988E18AB966240A
:1000500077E077BB7FEF78BB80E090E0A4E6B0E08C
:100060008D939C937EEF78BBB3990CC0A0E6B0E073
:10007000DED0E2EDF3E009D1A6E6B0E0E2EDF3E098
:1000800004D122C0B4990CC0A0E6B0E0D0D0E4ED19
:10009000F3E0FBD0A6E6B0E0E4EDF3E0F6D014C068
:1000A000B5990CC0A0E6B0E0C2D0E6EDF3E0EDD02B
:1000B000A6E6B0E0E6EDF3E0E8D006C0B69904C0ED
:1000C000A0E6B0E088278C9380E590E0CFD07DEF6C
:1000D00078BBB3990CC0A0E6B0E0A9D0E8EDF3E09E
:1000E000D4D0A6E6B0E0E8EDF3E0CFD029C0B499D3
:1000F0000CC0A0E6B0E09BD0EAEDF3E0C6D0A6E6E7
:10010000B0E0EAEDF3E0C1D01BC0B5990CC0A0E6A9
:10011000B0E08DD0ECEDF3E0B8D0A6E6B0E0ECEDC9
:10012000F3E0B3D00DC0B6990BC0A0E6B0E07FD02D
:10013000EEEDF3E0AAD0A6E6B0E0EEEDF3E0A5D058
:1001400080E590E093D07BEF78BBB3990CC0A0E63C
:10015000B0E06DD0E0EEF3E098D0A6E6B0E0E0EEDF
:10016000F3E093D032C0B4990CC0A0E6B0E05FD009
:10017000E2EEF3E08AD0A6E6B0E0E2EEF3E085D06E
:1001800024C0B5990CC0A0E6B0E051D0E4EEF3E095
:100190007CD0A6E6B0E0E4EEF3E077D016C0B699E6
:1001A00014C0A0E6B0E0E6D0002F112F0F931F93EC
:1001B000A6E6B0E0DFD0402F512F1F910F91041B16
:1001C000150BA4E6B0E00D931C9380E590E04ED0B3
:1001D000A0E6B0E0CFD0A4E6B0E00D931C93A4E677
:1001E000B0E00D911C91073E53E0150714F009F0A3
:1001F00001C013C0A0E6B0E0E6EEF3E046D0A0E612
:10020000B0E01ED023D080E090E0A4E6B0E08D9373
:100210009C93A0E6B0E088278C93A8E0B2E0E4E6E7
:10022000F0E057D00BD012D01DCFF894FFCF8F93B2
:100230008D918823E9F711978F910895A8E0B2E096
:100240008D91882311F005D0FBCF08958DE001D06A
:100250008AE05D9BFECF8CB908953197F1F7089540
:10026000689462F80895E89462F80895EF93FF9314
:10027000EE27E82BE92B31F0E0EDF7E03197F1F7CD
:100280000197D1F7FF91EF91089504D00D920020CE
:10029000E1F70895C895319600200895040F151FC1
:1002A000261F371F0895000F111F221F331F0895A7
:1002B00000951095209530950F5F1F4F2F4F3F4FA2
:1002C0000895019110810EC0019111912191308109
:1002D0000BC00191108117FF05C03FEF2FEF04C045
:1002E000008111272227332737FF03C0E1DF8DE28A
:1002F0008D93CF93DF93CF92DF92EF92AA24BB240A
:10030000CC24DD24EE2440E2CAE0DD2755E093E36F
:100310008881890F87FD9F7083FD907F891B89935A
:100320005A95A9F7C0DFAA1CBB1CCC1CDD1CEE1C17
:100330004A9551F7E894EFE0FF2782910ED0EB3019
:10034000E0F71EF068948A2D0CD088278D93EF90EB
:10035000DF90CF90DF91CF910895982F829501D0B3
:10036000892F8F70805D26F0803309F4089568949A
:100370008D93089500271127222733271DD08A3314
:1003800028F4803318F005D015D0F9CF0EF490CFB3
:10039000089580538F93402F512F622F732F83DF47
:1003A00082DF7CDF80DF8F919927080F191F291FBB
:1003B000391F08958D910895E894FCDF8032E9F3A8
:1003C0008B32D9F38930C9F38D3211F46894F2CFAE
:1003D0000895310034003700320035003800300015
:0A03E0003300360039004552520088
:00000001FF
