:1000000010C0189518951895189518951895189565
:100010001895189518951895189518951895189578
:1000200018958FE58DBFC8E3E0E24E2E82E08EBFCB
:10003000D2E0F2E05F2EEEEFF1E0A0E6B0E088273C
:100040008D933197E9F783E389B988E18AB966240A
:10005000B89AB99ABA9ABB98BC98BD98BE9870E005
:1000600078BB71E078BBB39B14C0E0E6F0E0A4E697
:10007000B0E0D4D00AD1A0E6B0E0D0D0E4E9F2E01C
:10008000FBD0C098C198C298C398C498C598C69828
:100090003CC0B49B14C0E0E6F0E0A4E6B0E0BED003
:1000A000F4D0A0E6B0E0BAD0E6E9F2E0E5D0C0983E
:1000B000C198C298C398C498C598C69826C0B59BE5
:1000C00014C0E0E6F0E0A4E6B0E0A8D0DED0A0E600
:1000D000B0E0A4D0E8E9F2E0CFD0C098C198C298CF
:1000E000C398C498C598C69810C0B69B0EC0E0E6E9
:1000F000F0E0A4E6B0E092D0C8D0A0E6B0E0EAE933
:10010000F2E0BAD084E690E0A8D072E078BBB39B6E
:100110000DC0E0E6F0E0A4E6B0E080D0B6D0A0E606
:10012000B0E07CD0ECE9F2E0A7D02CC0B49B0DC0CD
:10013000E0E6F0E0A4E6B0E071D0A7D0A0E6B0E041
:100140006DD0EEE9F2E098D01DC0B59B0DC0E0E6A1
:10015000F0E0A4E6B0E062D098D0A0E6B0E05ED0D7
:10016000E0EAF2E089D00EC0B69B0CC0E0E6F0E019
:10017000A4E6B0E053D089D0A0E6B0E04FD0E2EAE8
:10018000F2E07AD074E078BBB39B0DC0E0E6F0E01B
:10019000A4E6B0E043D079D0A0E6B0E03FD0E4EAF6
:1001A000F2E06AD02CC0B49B0DC0E0E6F0E0A4E61B
:1001B000B0E034D06AD0A0E6B0E030D0E6EAF2E0B9
:1001C0005BD01DC0B59B0DC0E0E6F0E0A4E6B0E05A
:1001D00025D05BD0A0E6B0E021D0E8EAF2E04CD038
:1001E0000EC0B69B0CC0E0E6F0E0A4E6B0E016D08E
:1001F0004CD0E4E6F0E0A0E6B0E010D046D0A0E6B7
:10020000B0E015D01AD0C098C198C298C398C498CD
:10021000C598C69888EE93E020D023CF8F938D9118
:100220008823E9F711978F910895A8E0B2E08D91A6
:10023000882311F005D0FBCF08958DE001D08AE02E
:100240005D9BFECF8CB908953197F1F708956894BE
:1002500062F80895E89462F80895EF93FF93EE270B
:10026000E82BE92B31F0E0EDF7E03197F1F701975A
:10027000D1F7FF91EF91089504D00D920020E1F79E
:100280000895C89531960020089581918D93882313
:10029000E1F70895310034003700200032003500C6
:0A02A000380030003300360039004A
:00000001FF
