:1000000010C0189518951895189518951895189565
:100010001895189518951895189518951895189578
:1000200018958FE58DBFC8E3E0E24E2E82E08EBFCB
:10003000D2E0F2E05F2EEEEFF1E0A0E6B0E088273C
:100040008D933197E9F783E389B988E18AB966240A
:1000500077E077BB7FEF78BB7EEF78BBB39905C0C5
:10006000E0E7F1E05CD061D014C0B49905C0E2E7EC
:10007000F1E055D05AD00DC0B59905C0E4E7F1E0E4
:100080004ED053D006C0B69904C0E6E7F1E047D0A1
:100090004CD08AE090E059D07DEF78BBB39905C091
:1000A000E8E7F1E03CD041D014C0B49905C0EAE7DC
:1000B000F1E035D03AD00DC0B59905C0ECE7F1E0DC
:1000C0002ED033D006C0B69904C0EEE7F1E027D0B9
:1000D0002CD08AE090E039D07BEF78BBB39905C093
:1000E000E0E8F1E01CD021D014C0B49905C0E2E8EA
:1000F000F1E015D01AD00DC0B59905C0E4E8F1E0E3
:100100000ED013D006C0B69904C0E6E8F1E007D0DF
:100110000CD08AE090E019D09FCFF894FFCF24D084
:10012000802D11F005D0FBCF08958DE001D08AE03D
:100130005D9BFECF8CB908953197F1F708956894CF
:1001400062F80895E89462F80895EF93FF93EE271C
:10015000E82BE92B31F0E0EDF7E03197F1F701976B
:10016000D1F7FF91EF910895C89531960020089539
:100170003100340037002A003200350038003000EA
:080180003300360039002300B2
:00000001FF
