:1000000010C0189518951895189518951895189565
:100010001895189518951895189518951895189578
:1000200018958FE58DBFC0E4E6E24E2E82E08EBFCC
:10003000D2E0F2E05F2EEEEFF1E0A0E6B0E088273C
:100040008D933197E9F783E389B988E18AB98FD134
:1000500066248CE0D4D18CE0D2D1A69AA79A8E9A4D
:100060008F9A8A9A8B9AD1988FEF90E090934B0059
:1000700080934A0000E815E220E030E0ABE7B0E012
:100080000D931D932D933C9377E077BB7FEF78BB67
:10009000AFE7B0E0EEE8F9E06CD4A8E6B0E0E6E95E
:1000A000F9E0E8D18D9A81E88FBD81E08EBD379A65
:1000B00041D18FE717E053D1E8E9F9E035D13ED1DE
:1000C0008FEB14E04CD1ECE9F9E02ED184EF91E014
:1000D000C2D136D18FE711E042D1E6EAF9E024D16E
:1000E0008FE717E03CD1EEEAF9E01ED18FEB13E089
:1000F00036D1E4EBF9E018D184EF91E0ACD155C0F2
:10010000A6E6B0E00D911C91003050E015070CF40C
:1001100001C008C08FEF90E090934B0080934A009D
:10012000929A93985DC0A6E6B0E00D911C910030C4
:1001300050E0150714F009F001C005C0AE98AF9863
:100140009698979831C0A6E6B0E00D911C910D3FAE
:100150005FEF15070CF001C005C0AE9AAF989698F6
:10016000979822C0A6E6B0E00D911C910A3F5FEF80
:1001700015070CF001C005C0AE9AAF9A96989798F3
:1001800013C0A6E6B0E00D911C91073F5FEF150785
:100190000CF001C005C0AE9AAF9A969A979804C029
:1001A000AE9AAF9A969A979A1BC0AAE6B0E08827B3
:1001B0008C93AAE6B0E030E189D0C2D08FE711E09D
:1001C000CED0E6EAF9E0B0D08FE717E0C8D0AAE6D3
:1001D000B0E0A4D08FEB13E0C2D0E4EBF9E0A4D000
:1001E000AAE6B0E0F5D2EDE0F0E0AFE7B0E0C9D3C9
:1001F00007B1087F006007B942D1A0E6B0E08D9357
:100200009C93E0E6F0E0D190E0808FEFE7FE882756
:10021000F82E082F9FD1CFD1E2E9F9E0D0D23CD21D
:10022000EDE0F0E0A2E6B0E0ACD3EFE7F0E073D1B0
:10023000E2E6F0E06BD162D2EDE0F0E029D1A6E693
:10024000B0E0EE0C000FE794DD92EC92A6E6B0E091
:100250000D911C91003050E0150714F009F001C019
:1002600004C0929A93984CCF29C0A6E6B0E00D91B5
:100270001C91003050E015070CF401C004C09298A6
:10028000939851CF1BC0A6E6B0E00D911C910030B1
:1002900050E0150709F012C0A8E6B0E030D035D024
:1002A000A8E6B0E02CD031D0A8E6B0E028D02DD020
:1002B00092989398AE98AF989698979884EF91E01B
:1002C000CAD073CFF894FFCFAEE0B2E012D08D3039
:1002D00039F03323D9F38D933A9563FE19D0F6CFD5
:1002E00063FC04C08DE014D08AE012D088278C9380
:1002F00008955F9BFECF8CB10895AEE0B2E08D9182
:10030000882311F005D0FBCF08958DE001D08AE05D
:100310005D9BFECF8CB90895AEE0B2E08D9188234D
:1003200011F067D0FBCF089546D2802D11F061D037
:10033000FBCF089582E063D017D013C080EC5FC07C
:1003400081E05DD011D080E85AC08FE7213039F0CC
:100350008FEB223021F08FE8233009F08FEC810FF2
:100360004EC080E84CD0089583E0992774C08AEF8E
:1003700090E071D0A09AA19AA29AA39AA49AA59A61
:10038000AD9885E090E067D0AC98A898A998AA9A13
:10039000AB9AAC9AEF93FF93E4ECF0E050D0FF916E
:1003A000EF91AC9855D0AC9AEF93FF93E4ECF0E06A
:1003B00046D0FF91EF91AC984BD0AC9AEF93FF935E
:1003C000E4ECF0E03CD0FF91EF91AC9841D0AB98D9
:1003D000AC9AEF93FF93E4ECF0E031D0FF91EF9112
:1003E000AC9836D088E20BD08EE009D086E007D0FA
:1003F0000895AD9A829505D004D02AD00895AD987D
:10040000F9CF859510F4AB9A01C0AB98859510F49F
:10041000AA9A01C0AA98859510F4A99A01C0A99832
:10042000859510F4A89A01C0A898AC9AEF93FF9311
:10043000E4ECF0E004D0FF91EF91AC98089531978F
:10044000F1F70895689462F80895E89462F80895C1
:1004500081E090E000C0EF93FF93EE27E82BE92BBB
:1004600031F0E0EDF7E03197F1F70197D1F7FF9127
:10047000EF910895A0D10D920020E1F70895369AEA
:100480003699FECF369A3699FECF84B195B108954C
:100490003DD0992711278F2D880F80E8F82A802FCB
:1004A000881F08F41FEF41F08F57082F07FD04C085
:1004B000003240F08FEF01C08827982FD82EE82E09
:1004C000F82E09C08FE1801B082FF694E794D7948B
:1004D00097950A95D1F7112351F09095D094E09417
:1004E000F09481E0980F8827D81EE81EF81E0F2D83
:1004F000FE2CED2CD92E0895D094E094F09491E048
:10050000D90E9927E91EF91E10950895D190E19012
:10051000F190019108952191319141915191089566
:10052000102F90E8FF0C001F0927990FF7941078FF
:10053000652F90E8440F551F5927990F479560780C
:1005400000380895FF0C90E89027110F9795F794C5
:10055000092F0895102FBD2CDE2CEF2CF02E112327
:100560004AF4B094D094E094F0949FEFB91AD90A69
:10057000E90AF90A0EE1FF2039F4FE2CED2CDB2C00
:10058000BB240850C2F766C032F00A95BB0CDD1CD4
:10059000EE1CFF1CF9CF01D0D5CFB7FE089590E82F
:1005A000B91611F4D0FE08959FEFD91AE90AF90A95
:1005B00009F403950895502F2D2D3E2D4F2D612FB9
:1005C00008952DEC3CEC4CEC5DE366270FC09EDFFC
:1005D000F2DFDD24EE2490E8F92E0FE307C09BDF65
:1005E00005C02227332740E251E46627552351F105
:1005F000002381F195DF71F11627005850580894B7
:10060000050B18F407FD03C025C007FD23C0469560
:1006100037952795F694E794D79422D0FF202AF0B7
:10062000DD0CEE1CFF1C015073F09D2D969548F0DB
:10063000DD203AF4EE202AF491E0D90E9927E91E44
:10064000F91E80CF07C09FE7092FF92A9FEFD92E07
:10065000E92E0895DD24EE24FF24002711270895B4
:100660009F929924AA24BB2488E1D216E306F406BB
:1006700028F0D21AE30AF40A089401C08894991C5D
:10068000AA1CBB1CDD0CEE1CFF1C8A9571F7D92C33
:10069000EA2CFB2C9F90089543DFE1F25038D1F211
:1006A0001627005850580894051F12F418F4CBCFA1
:1006B00008F0D0CF0BD0FF202AF0BB0CDD1CEE1CC5
:1006C000FF1C40CF0F5F0BF4BECF3CCF9F9299240D
:1006D000AA24BB24992788E1990CAA1CBB1CDD1C09
:1006E000EE1CFF1C30F4920EA31EB41ED91EE91E90
:1006F000F91E8A9589F79F9008950DDF11DF503814
:1007000029F090E869270CC00AF045D01BCF5FE3C1
:1007100022273327442701C0FEDE02DF5038B1F321
:10072000003899F3902F951B8BF312F434D0FACF45
:10073000983118F0222733274427983028F0232FA8
:10074000342F44279850F9CF992329F046953795AF
:1007500027959A95D9F7912F962742F014D0B0F6A5
:10076000F794E794D7940F5F8BF66DCF10D051F0CC
:1007700008F4C2DEFF2052F2DD0CEE1CFF1C01501B
:10078000CBF761CF67CFD20EE31EF41E0895D21AC5
:10079000E30AF40A0895DF92EF92FF920F931F93FA
:1007A000D22EE32EF42E052F162F6F915F914F91CD
:1007B0003F912F910895C895319600200895FBDF51
:1007C000D02CF9DFE02CF7DFF02CF5DF002D0895B9
:1007D0003CDE88278A938A933DDF11278D918032F2
:1007E000E9F31197BAD090F08D3229F41095119653
:1007F0008C91B3D058F08E3229F411968C91ADD0F3
:1008000008F445C022961EDE81E008958C91A5D0A3
:10081000D8F547D01196D0F703958D919ED0E0F38F
:100820008E3229F48C9199D010F41196FBCF853437
:1008300019F0853609F055C011968C918ED060F074
:100840008D3219F08B3221F0DDCF088000940882C0
:1008500011968C9182D0B0F68053898311968C9139
:100860007CD058F49981990F990F0980900D990FB8
:100870008053890F8983873228F68981988199234B
:100880000AF48195080F2DC08E3289F611968C914D
:1008900064D068F606D018F011960A95F8CF119634
:1008A000C1CF4F2D3E2D2D2DDD0CEE1CFF1CA8F0D1
:1008B000DD0CEE1CFF1C88F0D20EE31EF41E68F067
:1008C000DD0CEE1CFF1C48F0805309F06894D80E34
:1008D0008827E81EF81E08F00895F42EE32ED22E85
:1008E000089534D019F116F5098308E921D0069549
:1008F000882787959F2D9F77980FF92E0150000F1D
:10090000110F07958981882379F01AF481958983DD
:1009100006C057DE89818A958983D9F705C061DED3
:1009200089818A958983D9F72296089593DEFCCF31
:100930000DD041F0FF2032F00A9531F0DD0CEE1CB5
:10094000FF1CD2F7889408950894089500240D2878
:100950000E280F28002A00200895803320F08A33C3
:1009600010F4089408958894089591E005C092E0E9
:1009700003C094E001C098E01EDF0D929A95E1F764
:10098000089594E081918D939A95E1F70895000080
:10099000000048E1FA3E730053574E00494E4B5554
:1009A0004241544F520053554855203A2000494E79
:0C09B000505554004279204A4249000092
:00000001FF
