:1000000012C0189518951895189518951895189563
:100010001895189518951895189518951895189578
:100020001895189518958FE58DBFC8E3E0E24E2E20
:1000300084E08EBFD4E0F4E05F2EA89584B7082E4C
:10004000877F84BF88E1992781BD91BDEEEFF3E002
:10005000A0E6B0E088278D933197E9F783E389B96B
:1000600080E080BD88E18AB9662412D0A0E6B0E0C5
:100070008D9388278C938CE291E024D0EAEEF0E017
:100080000BD010D08CE291E01DD0EFCFF894FFCFD1
:100090005F9BFECF8CB1089524D0802D11F005D048
:1000A000FBCF08958DE001D08AE05D9BFECF8CB937
:1000B00008953197F1F70895689462F80895E894E7
:1000C00062F80895EF93FF93EE27E82BE92B31F0C8
:1000D000E0EDF7E03197F1F70197D1F7FF91EF915C
:1000E0000895C89531960020089548454C4C4F001E
:00000001FF
